{
  "contractName": "ExampleSwapToPrice",
  "abi": [
    {
      "inputs": [
        {
          "internalType": "address",
          "name": "factory_",
          "type": "address"
        },
        {
          "internalType": "contract IUniswapV2Router01",
          "name": "router_",
          "type": "address"
        }
      ],
      "stateMutability": "nonpayable",
      "type": "constructor"
    },
    {
      "inputs": [],
      "name": "factory",
      "outputs": [
        {
          "internalType": "address",
          "name": "",
          "type": "address"
        }
      ],
      "stateMutability": "view",
      "type": "function"
    },
    {
      "inputs": [],
      "name": "router",
      "outputs": [
        {
          "internalType": "contract IUniswapV2Router01",
          "name": "",
          "type": "address"
        }
      ],
      "stateMutability": "view",
      "type": "function"
    },
    {
      "inputs": [
        {
          "internalType": "address",
          "name": "tokenA",
          "type": "address"
        },
        {
          "internalType": "address",
          "name": "tokenB",
          "type": "address"
        },
        {
          "internalType": "uint256",
          "name": "truePriceTokenA",
          "type": "uint256"
        },
        {
          "internalType": "uint256",
          "name": "truePriceTokenB",
          "type": "uint256"
        },
        {
          "internalType": "uint256",
          "name": "maxSpendTokenA",
          "type": "uint256"
        },
        {
          "internalType": "uint256",
          "name": "maxSpendTokenB",
          "type": "uint256"
        },
        {
          "internalType": "address",
          "name": "to",
          "type": "address"
        },
        {
          "internalType": "uint256",
          "name": "deadline",
          "type": "uint256"
        }
      ],
      "name": "swapToPrice",
      "outputs": [],
      "stateMutability": "nonpayable",
      "type": "function"
    }
  ],
  "bytecode": "0x60c060405234801561001057600080fd5b506040516112c83803806112c88339818101604052604081101561003357600080fd5b5080516020909101516001600160601b0319606092831b811660a052911b1660805260805160601c60a05160601c61123b61008d600039806101df52806105905250806102c3528061039a52806105b4525061123b6000f3fe608060405234801561001057600080fd5b50600436106100415760003560e01c8063bef90fd314610046578063c45a0155146100aa578063f887ea40146100db575b600080fd5b6100a8600480360361010081101561005d57600080fd5b5073ffffffffffffffffffffffffffffffffffffffff8135811691602081013582169160408201359160608101359160808201359160a08101359160c0820135169060e001356100e3565b005b6100b261058e565b6040805173ffffffffffffffffffffffffffffffffffffffff9092168252519081900360200190f35b6100b26105b2565b85158015906100f157508415155b61015c57604080517f08c379a000000000000000000000000000000000000000000000000000000000815260206004820152601e60248201527f4578616d706c6553776170546f50726963653a205a45524f5f50524943450000604482015290519081900360640190fd5b8315158061016957508215155b6101d457604080517f08c379a000000000000000000000000000000000000000000000000000000000815260206004820152601e60248201527f4578616d706c6553776170546f50726963653a205a45524f5f5350454e440000604482015290519081900360640190fd5b6000806000806102057f00000000000000000000000000000000000000000000000000000000000000008d8d6105d6565b915091506102158a8a84846106be565b9094509250505080610272576040517f08c379a00000000000000000000000000000000000000000000000000000000081526004018080602001828103825260228152602001806111e46022913960400191505060405180910390fd5b60008261027f5785610281565b865b90508082111561028f578091505b60008361029c578a61029e565b8b5b90506000846102ad578c6102af565b8b5b90506102bd823330876107aa565b6102e8827f00000000000000000000000000000000000000000000000000000000000000008661097a565b6040805160028082526060808301845292602083019080368337019050509050828160008151811061031657fe5b602002602001019073ffffffffffffffffffffffffffffffffffffffff16908173ffffffffffffffffffffffffffffffffffffffff1681525050818160018151811061035e57fe5b602002602001019073ffffffffffffffffffffffffffffffffffffffff16908173ffffffffffffffffffffffffffffffffffffffff16815250507f000000000000000000000000000000000000000000000000000000000000000073ffffffffffffffffffffffffffffffffffffffff166338ed1739866000848c8c6040518663ffffffff1660e01b815260040180868152602001858152602001806020018473ffffffffffffffffffffffffffffffffffffffff1673ffffffffffffffffffffffffffffffffffffffff168152602001838152602001828103825285818151815260200191508051906020019060200280838360005b8381101561046d578181015183820152602001610455565b505050509050019650505050505050600060405180830381600087803b15801561049657600080fd5b505af11580156104aa573d6000803e3d6000fd5b505050506040513d6000823e601f3d9081017fffffffffffffffffffffffffffffffffffffffffffffffffffffffffffffffe016820160405260208110156104f157600080fd5b810190808051604051939291908464010000000082111561051157600080fd5b90830190602082018581111561052657600080fd5b825186602082028301116401000000008211171561054357600080fd5b82525081516020918201928201910280838360005b83811015610570578181015183820152602001610558565b50505050905001604052505050505050505050505050505050505050565b7f000000000000000000000000000000000000000000000000000000000000000081565b7f000000000000000000000000000000000000000000000000000000000000000081565b60008060006105e58585610b41565b5090506000806105f6888888610c94565b73ffffffffffffffffffffffffffffffffffffffff16630902f1ac6040518163ffffffff1660e01b815260040160606040518083038186803b15801561063b57600080fd5b505afa15801561064f573d6000803e3d6000fd5b505050506040513d606081101561066557600080fd5b5080516020909101516dffffffffffffffffffffffffffff918216935016905073ffffffffffffffffffffffffffffffffffffffff878116908416146106ac5780826106af565b81815b90999098509650505050505050565b600080856106cd858786610d7f565b10915060006106e2858563ffffffff610e5416565b9050600061073461072f6106fe846103e863ffffffff610e5416565b86610709578961070b565b8a5b61072a6103e58961071c578d61071e565b8c5b9063ffffffff610e5416565b610d7f565b610ee0565b905060006103e58561075757610752876103e863ffffffff610e5416565b610769565b610769886103e863ffffffff610e5416565b8161077057fe5b0490508082101561078b5750600093508392506107a1915050565b61079b828263ffffffff61103516565b93505050505b94509492505050565b6040805173ffffffffffffffffffffffffffffffffffffffff85811660248301528481166044830152606480830185905283518084039091018152608490920183526020820180517bffffffffffffffffffffffffffffffffffffffffffffffffffffffff167f23b872dd0000000000000000000000000000000000000000000000000000000017815292518251600094606094938a169392918291908083835b6020831061088857805182527fffffffffffffffffffffffffffffffffffffffffffffffffffffffffffffffe0909201916020918201910161084b565b6001836020036101000a0380198251168184511680821785525050505050509050019150506000604051808303816000865af19150503d80600081146108ea576040519150601f19603f3d011682016040523d82523d6000602084013e6108ef565b606091505b509150915081801561091d57508051158061091d575080806020019051602081101561091a57600080fd5b50515b610972576040517f08c379a00000000000000000000000000000000000000000000000000000000081526004018080602001828103825260318152602001806111636031913960400191505060405180910390fd5b505050505050565b6040805173ffffffffffffffffffffffffffffffffffffffff8481166024830152604480830185905283518084039091018152606490920183526020820180517bffffffffffffffffffffffffffffffffffffffffffffffffffffffff167f095ea7b300000000000000000000000000000000000000000000000000000000178152925182516000946060949389169392918291908083835b60208310610a5057805182527fffffffffffffffffffffffffffffffffffffffffffffffffffffffffffffffe09092019160209182019101610a13565b6001836020036101000a0380198251168184511680821785525050505050509050019150506000604051808303816000865af19150503d8060008114610ab2576040519150601f19603f3d011682016040523d82523d6000602084013e610ab7565b606091505b5091509150818015610ae5575080511580610ae55750808060200190516020811015610ae257600080fd5b50515b610b3a576040517f08c379a000000000000000000000000000000000000000000000000000000000815260040180806020018281038252602b8152602001806111b9602b913960400191505060405180910390fd5b5050505050565b6000808273ffffffffffffffffffffffffffffffffffffffff168473ffffffffffffffffffffffffffffffffffffffff161415610bc9576040517f08c379a00000000000000000000000000000000000000000000000000000000081526004018080602001828103825260258152602001806111946025913960400191505060405180910390fd5b8273ffffffffffffffffffffffffffffffffffffffff168473ffffffffffffffffffffffffffffffffffffffff1610610c03578284610c06565b83835b909250905073ffffffffffffffffffffffffffffffffffffffff8216610c8d57604080517f08c379a000000000000000000000000000000000000000000000000000000000815260206004820152601e60248201527f556e697377617056324c6962726172793a205a45524f5f414444524553530000604482015290519081900360640190fd5b9250929050565b6000806000610ca38585610b41565b604080517fffffffffffffffffffffffffffffffffffffffff000000000000000000000000606094851b811660208084019190915293851b81166034830152825160288184030181526048830184528051908501207fff0000000000000000000000000000000000000000000000000000000000000060688401529a90941b9093166069840152607d8301989098527f5a4c53b5884dc8a57efb7cb45704f1c26749674977fe4bcc8cce0ca2d49ae812609d808401919091528851808403909101815260bd909201909752805196019590952095945050505050565b6000806000610d8e86866110a7565b9150915060008480610d9c57fe5b868809905082811115610db0576001820391505b918290039181610dce57848381610dc357fe5b049350505050610e4d565b848210610e3c57604080517f08c379a000000000000000000000000000000000000000000000000000000000815260206004820152601a60248201527f46756c6c4d6174683a2046554c4c4449565f4f564552464c4f57000000000000604482015290519081900360640190fd5b610e478383876110f2565b93505050505b9392505050565b6000811580610e6f57505080820282828281610e6c57fe5b04145b610eda57604080517f08c379a000000000000000000000000000000000000000000000000000000000815260206004820152601460248201527f64732d6d6174682d6d756c2d6f766572666c6f77000000000000000000000000604482015290519081900360640190fd5b92915050565b600081610eef57506000611030565b8160017001000000000000000000000000000000008210610f155760809190911c9060401b5b680100000000000000008210610f305760409190911c9060201b5b6401000000008210610f475760209190911c9060101b5b620100008210610f5c5760109190911c9060081b5b6101008210610f705760089190911c9060041b5b60108210610f835760049190911c9060021b5b60088210610f8f5760011b5b6001818581610f9a57fe5b048201901c90506001818581610fac57fe5b048201901c90506001818581610fbe57fe5b048201901c90506001818581610fd057fe5b048201901c90506001818581610fe257fe5b048201901c90506001818581610ff457fe5b048201901c9050600181858161100657fe5b048201901c9050600081858161101857fe5b049050808210611028578061102a565b815b93505050505b919050565b80820382811115610eda57604080517f08c379a000000000000000000000000000000000000000000000000000000000815260206004820152601560248201527f64732d6d6174682d7375622d756e646572666c6f770000000000000000000000604482015290519081900360640190fd5b600080807fffffffffffffffffffffffffffffffffffffffffffffffffffffffffffffffff848609905083850292508281039150828110156110ea576001820391505b509250929050565b6000818103821680838161110257fe5b04925080858161110e57fe5b04945080816000038161111d57fe5b6002858103808702820302808702820302808702820302808702820302808702820302808702820302958602900390940293046001019390930293909301029291505056fe5472616e7366657248656c7065723a3a7472616e7366657246726f6d3a207472616e7366657246726f6d206661696c6564556e697377617056324c6962726172793a204944454e544943414c5f4144445245535345535472616e7366657248656c7065723a3a73616665417070726f76653a20617070726f7665206661696c65644578616d706c6553776170546f50726963653a205a45524f5f414d4f554e545f494ea26469706673582212209fcef8d504e942414aef08a09323d138432518e9331129efc24eb94c82f51eb464736f6c63430006060033",
  "immutableReferences": {
    "4779": [
      {
        "length": 32,
        "start": 707
      },
      {
        "length": 32,
        "start": 922
      },
      {
        "length": 32,
        "start": 1460
      }
    ],
    "4781": [
      {
        "length": 32,
        "start": 479
      },
      {
        "length": 32,
        "start": 1424
      }
    ]
  },
  "source": "pragma solidity =0.6.6;\n\nimport '@uniswap/v2-core/contracts/interfaces/IUniswapV2Pair.sol';\nimport '@uniswap/lib/contracts/libraries/Babylonian.sol';\nimport '@uniswap/lib/contracts/libraries/TransferHelper.sol';\n\nimport '../libraries/UniswapV2LiquidityMathLibrary.sol';\nimport '../interfaces/IERC20.sol';\nimport '../interfaces/IUniswapV2Router01.sol';\nimport '../libraries/SafeMath.sol';\nimport '../libraries/UniswapV2Library.sol';\n\ncontract ExampleSwapToPrice {\n    using SafeMath for uint256;\n\n    IUniswapV2Router01 public immutable router;\n    address public immutable factory;\n\n    constructor(address factory_, IUniswapV2Router01 router_) public {\n        factory = factory_;\n        router = router_;\n    }\n\n    // swaps an amount of either token such that the trade is profit-maximizing, given an external true price\n    // true price is expressed in the ratio of token A to token B\n    // caller must approve this contract to spend whichever token is intended to be swapped\n    function swapToPrice(\n        address tokenA,\n        address tokenB,\n        uint256 truePriceTokenA,\n        uint256 truePriceTokenB,\n        uint256 maxSpendTokenA,\n        uint256 maxSpendTokenB,\n        address to,\n        uint256 deadline\n    ) public {\n        // true price is expressed as a ratio, so both values must be non-zero\n        require(truePriceTokenA != 0 && truePriceTokenB != 0, \"ExampleSwapToPrice: ZERO_PRICE\");\n        // caller can specify 0 for either if they wish to swap in only one direction, but not both\n        require(maxSpendTokenA != 0 || maxSpendTokenB != 0, \"ExampleSwapToPrice: ZERO_SPEND\");\n\n        bool aToB;\n        uint256 amountIn;\n        {\n            (uint256 reserveA, uint256 reserveB) = UniswapV2Library.getReserves(factory, tokenA, tokenB);\n            (aToB, amountIn) = UniswapV2LiquidityMathLibrary.computeProfitMaximizingTrade(\n                truePriceTokenA, truePriceTokenB,\n                reserveA, reserveB\n            );\n        }\n\n        require(amountIn > 0, 'ExampleSwapToPrice: ZERO_AMOUNT_IN');\n\n        // spend up to the allowance of the token in\n        uint256 maxSpend = aToB ? maxSpendTokenA : maxSpendTokenB;\n        if (amountIn > maxSpend) {\n            amountIn = maxSpend;\n        }\n\n        address tokenIn = aToB ? tokenA : tokenB;\n        address tokenOut = aToB ? tokenB : tokenA;\n        TransferHelper.safeTransferFrom(tokenIn, msg.sender, address(this), amountIn);\n        TransferHelper.safeApprove(tokenIn, address(router), amountIn);\n\n        address[] memory path = new address[](2);\n        path[0] = tokenIn;\n        path[1] = tokenOut;\n\n        router.swapExactTokensForTokens(\n            amountIn,\n            0, // amountOutMin: we can skip computing this number because the math is tested\n            path,\n            to,\n            deadline\n        );\n    }\n}\n",
  "sourcePath": "/Users/godambe/dhruv1584/finaxis/enoch-dex-periphery/contracts/examples/ExampleSwapToPrice.sol",
  "compiler": {
    "name": "solc",
    "version": "0.6.6+commit.6c089d02.Emscripten.clang"
  },
  "schemaVersion": "3.3.4",
  "updatedAt": "2021-07-18T07:33:43.931Z",
  "devdoc": {
    "methods": {}
  },
  "userdoc": {
    "methods": {}
  }
}