{
  "contractName": "ExampleComputeLiquidityValue",
  "abi": [
    {
      "inputs": [
        {
          "internalType": "address",
          "name": "factory_",
          "type": "address"
        }
      ],
      "stateMutability": "nonpayable",
      "type": "constructor"
    },
    {
      "inputs": [],
      "name": "factory",
      "outputs": [
        {
          "internalType": "address",
          "name": "",
          "type": "address"
        }
      ],
      "stateMutability": "view",
      "type": "function"
    },
    {
      "inputs": [
        {
          "internalType": "address",
          "name": "tokenA",
          "type": "address"
        },
        {
          "internalType": "address",
          "name": "tokenB",
          "type": "address"
        },
        {
          "internalType": "uint256",
          "name": "truePriceTokenA",
          "type": "uint256"
        },
        {
          "internalType": "uint256",
          "name": "truePriceTokenB",
          "type": "uint256"
        }
      ],
      "name": "getReservesAfterArbitrage",
      "outputs": [
        {
          "internalType": "uint256",
          "name": "reserveA",
          "type": "uint256"
        },
        {
          "internalType": "uint256",
          "name": "reserveB",
          "type": "uint256"
        }
      ],
      "stateMutability": "view",
      "type": "function"
    },
    {
      "inputs": [
        {
          "internalType": "address",
          "name": "tokenA",
          "type": "address"
        },
        {
          "internalType": "address",
          "name": "tokenB",
          "type": "address"
        },
        {
          "internalType": "uint256",
          "name": "liquidityAmount",
          "type": "uint256"
        }
      ],
      "name": "getLiquidityValue",
      "outputs": [
        {
          "internalType": "uint256",
          "name": "tokenAAmount",
          "type": "uint256"
        },
        {
          "internalType": "uint256",
          "name": "tokenBAmount",
          "type": "uint256"
        }
      ],
      "stateMutability": "view",
      "type": "function"
    },
    {
      "inputs": [
        {
          "internalType": "address",
          "name": "tokenA",
          "type": "address"
        },
        {
          "internalType": "address",
          "name": "tokenB",
          "type": "address"
        },
        {
          "internalType": "uint256",
          "name": "truePriceTokenA",
          "type": "uint256"
        },
        {
          "internalType": "uint256",
          "name": "truePriceTokenB",
          "type": "uint256"
        },
        {
          "internalType": "uint256",
          "name": "liquidityAmount",
          "type": "uint256"
        }
      ],
      "name": "getLiquidityValueAfterArbitrageToPrice",
      "outputs": [
        {
          "internalType": "uint256",
          "name": "tokenAAmount",
          "type": "uint256"
        },
        {
          "internalType": "uint256",
          "name": "tokenBAmount",
          "type": "uint256"
        }
      ],
      "stateMutability": "view",
      "type": "function"
    },
    {
      "inputs": [
        {
          "internalType": "address",
          "name": "tokenA",
          "type": "address"
        },
        {
          "internalType": "address",
          "name": "tokenB",
          "type": "address"
        },
        {
          "internalType": "uint256",
          "name": "truePriceTokenA",
          "type": "uint256"
        },
        {
          "internalType": "uint256",
          "name": "truePriceTokenB",
          "type": "uint256"
        },
        {
          "internalType": "uint256",
          "name": "liquidityAmount",
          "type": "uint256"
        }
      ],
      "name": "getGasCostOfGetLiquidityValueAfterArbitrageToPrice",
      "outputs": [
        {
          "internalType": "uint256",
          "name": "",
          "type": "uint256"
        }
      ],
      "stateMutability": "view",
      "type": "function"
    }
  ],
  "bytecode": "0x60a060405234801561001057600080fd5b506040516114043803806114048339818101604052602081101561003357600080fd5b5051606081901b6001600160601b0319166080526001600160a01b031661138961007b600039806101fa5280610238528061027b52806102b952806102e352506113896000f3fe608060405234801561001057600080fd5b50600436106100675760003560e01c806380caa3531161005057806380caa3531461011d578063c45a01551461017e578063d9b7a6e7146101af57610067565b80633558e94c1461006c57806369a2fcbd146100ce575b600080fd5b6100b56004803603608081101561008257600080fd5b5073ffffffffffffffffffffffffffffffffffffffff8135811691602081013590911690604081013590606001356101f2565b6040805192835260208301919091528051918290030190f35b6100b5600480360360a08110156100e457600080fd5b5073ffffffffffffffffffffffffffffffffffffffff813581169160208101359091169060408101359060608101359060800135610230565b61016c600480360360a081101561013357600080fd5b5073ffffffffffffffffffffffffffffffffffffffff813581169160208101359091169060408101359060608101359060800135610270565b60408051918252519081900360200190f35b6101866102b7565b6040805173ffffffffffffffffffffffffffffffffffffffff9092168252519081900360200190f35b6100b5600480360360608110156101c557600080fd5b5073ffffffffffffffffffffffffffffffffffffffff8135811691602081013590911690604001356102db565b6000806102227f000000000000000000000000000000000000000000000000000000000000000087878787610316565b915091505b94509492505050565b6000806102617f000000000000000000000000000000000000000000000000000000000000000088888888886103f5565b915091505b9550959350505050565b6000805a90506102a47f000000000000000000000000000000000000000000000000000000000000000088888888886103f5565b505060005a909103979650505050505050565b7f000000000000000000000000000000000000000000000000000000000000000081565b60008061030a7f0000000000000000000000000000000000000000000000000000000000000000868686610641565b91509150935093915050565b600080610324878787610824565b909250905081158015906103385750600081115b61038d576040517f08c379a000000000000000000000000000000000000000000000000000000000815260040180806020018281038252602d815260200180611288602d913960400191505060405180910390fd5b60008061039c8686868661090c565b9150915080600014156103b157506102669050565b81156103d25760006103c48286866109f7565b9482019490930392506103e9565b60006103df8285876109f7565b9094039350918201915b50509550959350505050565b60008060008073ffffffffffffffffffffffffffffffffffffffff168973ffffffffffffffffffffffffffffffffffffffff1663017e7e586040518163ffffffff1660e01b815260040160206040518083038186803b15801561045757600080fd5b505afa15801561046b573d6000803e3d6000fd5b505050506040513d602081101561048157600080fd5b505173ffffffffffffffffffffffffffffffffffffffff161415905060006104aa8a8a8a610b1b565b90506000826104ba57600061052d565b8173ffffffffffffffffffffffffffffffffffffffff16637464fc3d6040518163ffffffff1660e01b815260040160206040518083038186803b15801561050057600080fd5b505afa158015610514573d6000803e3d6000fd5b505050506040513d602081101561052a57600080fd5b50515b905060008273ffffffffffffffffffffffffffffffffffffffff166318160ddd6040518163ffffffff1660e01b815260040160206040518083038186803b15801561057757600080fd5b505afa15801561058b573d6000803e3d6000fd5b505050506040513d60208110156105a157600080fd5b505190508681108015906105b55750600087115b61060a576040517f08c379a00000000000000000000000000000000000000000000000000000000081526004018080602001828103825260278152602001806113026027913960400191505060405180910390fd5b60008061061a8e8e8e8e8e610316565b9150915061062c8282858c8a89610c06565b97509750505050505050965096945050505050565b600080600080610652888888610824565b915091506000610663898989610b1b565b905060008073ffffffffffffffffffffffffffffffffffffffff168a73ffffffffffffffffffffffffffffffffffffffff1663017e7e586040518163ffffffff1660e01b815260040160206040518083038186803b1580156106c457600080fd5b505afa1580156106d8573d6000803e3d6000fd5b505050506040513d60208110156106ee57600080fd5b505173ffffffffffffffffffffffffffffffffffffffff161415905060008161071857600061078b565b8273ffffffffffffffffffffffffffffffffffffffff16637464fc3d6040518163ffffffff1660e01b815260040160206040518083038186803b15801561075e57600080fd5b505afa158015610772573d6000803e3d6000fd5b505050506040513d602081101561078857600080fd5b50515b905060008373ffffffffffffffffffffffffffffffffffffffff166318160ddd6040518163ffffffff1660e01b815260040160206040518083038186803b1580156107d557600080fd5b505afa1580156107e9573d6000803e3d6000fd5b505050506040513d60208110156107ff57600080fd5b505190506108118686838c8787610c06565b9750975050505050505094509492505050565b60008060006108338585610cdf565b509050600080610844888888610b1b565b73ffffffffffffffffffffffffffffffffffffffff16630902f1ac6040518163ffffffff1660e01b815260040160606040518083038186803b15801561088957600080fd5b505afa15801561089d573d6000803e3d6000fd5b505050506040513d60608110156108b357600080fd5b5080516020909101516dffffffffffffffffffffffffffff918216935016905073ffffffffffffffffffffffffffffffffffffffff878116908416146108fa5780826108fd565b81815b90999098509650505050505050565b6000808561091b858786610e32565b1091506000610930858563ffffffff610f0716565b9050600061098261097d61094c846103e863ffffffff610f0716565b866109575789610959565b8a5b6109786103e58961096a578d61096c565b8c5b9063ffffffff610f0716565b610e32565b610f93565b905060006103e5856109a5576109a0876103e863ffffffff610f0716565b6109b7565b6109b7886103e863ffffffff610f0716565b816109be57fe5b049050808210156109d9575060009350839250610227915050565b6109e9828263ffffffff6110e816565b935050505094509492505050565b6000808411610a51576040517f08c379a000000000000000000000000000000000000000000000000000000000815260040180806020018281038252602b815260200180611329602b913960400191505060405180910390fd5b600083118015610a615750600082115b610ab6576040517f08c379a00000000000000000000000000000000000000000000000000000000081526004018080602001828103825260288152602001806112da6028913960400191505060405180910390fd5b6000610aca856103e563ffffffff610f0716565b90506000610ade828563ffffffff610f0716565b90506000610b0483610af8886103e863ffffffff610f0716565b9063ffffffff61115a16565b9050808281610b0f57fe5b04979650505050505050565b6000806000610b2a8585610cdf565b604080517fffffffffffffffffffffffffffffffffffffffff000000000000000000000000606094851b811660208084019190915293851b81166034830152825160288184030181526048830184528051908501207fff0000000000000000000000000000000000000000000000000000000000000060688401529a90941b9093166069840152607d8301989098527fe2af48fcd0a2dd8e50388c571e9498bdae21dfc0daeb7f8c42c0da8420b0b9b1609d808401919091528851808403909101815260bd909201909752805196019590952095945050505050565b600080838015610c165750600083115b15610c9e576000610c3061097d8a8a63ffffffff610f0716565b90506000610c3d85610f93565b905080821115610c9b57876000610c5a848463ffffffff6110e816565b90506000610c7384610af887600563ffffffff610f0716565b90506000610c82848484610e32565b9050610c948c8263ffffffff61115a16565b9b50505050505b50505b85610caf898763ffffffff610f0716565b81610cb657fe5b0486610cc8898863ffffffff610f0716565b81610ccf57fe5b0491509150965096945050505050565b6000808273ffffffffffffffffffffffffffffffffffffffff168473ffffffffffffffffffffffffffffffffffffffff161415610d67576040517f08c379a00000000000000000000000000000000000000000000000000000000081526004018080602001828103825260258152602001806112b56025913960400191505060405180910390fd5b8273ffffffffffffffffffffffffffffffffffffffff168473ffffffffffffffffffffffffffffffffffffffff1610610da1578284610da4565b83835b909250905073ffffffffffffffffffffffffffffffffffffffff8216610e2b57604080517f08c379a000000000000000000000000000000000000000000000000000000000815260206004820152601e60248201527f556e697377617056324c6962726172793a205a45524f5f414444524553530000604482015290519081900360640190fd5b9250929050565b6000806000610e4186866111cc565b9150915060008480610e4f57fe5b868809905082811115610e63576001820391505b918290039181610e8157848381610e7657fe5b049350505050610f00565b848210610eef57604080517f08c379a000000000000000000000000000000000000000000000000000000000815260206004820152601a60248201527f46756c6c4d6174683a2046554c4c4449565f4f564552464c4f57000000000000604482015290519081900360640190fd5b610efa838387611217565b93505050505b9392505050565b6000811580610f2257505080820282828281610f1f57fe5b04145b610f8d57604080517f08c379a000000000000000000000000000000000000000000000000000000000815260206004820152601460248201527f64732d6d6174682d6d756c2d6f766572666c6f77000000000000000000000000604482015290519081900360640190fd5b92915050565b600081610fa2575060006110e3565b8160017001000000000000000000000000000000008210610fc85760809190911c9060401b5b680100000000000000008210610fe35760409190911c9060201b5b6401000000008210610ffa5760209190911c9060101b5b62010000821061100f5760109190911c9060081b5b61010082106110235760089190911c9060041b5b601082106110365760049190911c9060021b5b600882106110425760011b5b600181858161104d57fe5b048201901c9050600181858161105f57fe5b048201901c9050600181858161107157fe5b048201901c9050600181858161108357fe5b048201901c9050600181858161109557fe5b048201901c905060018185816110a757fe5b048201901c905060018185816110b957fe5b048201901c905060008185816110cb57fe5b0490508082106110db57806110dd565b815b93505050505b919050565b80820382811115610f8d57604080517f08c379a000000000000000000000000000000000000000000000000000000000815260206004820152601560248201527f64732d6d6174682d7375622d756e646572666c6f770000000000000000000000604482015290519081900360640190fd5b80820182811015610f8d57604080517f08c379a000000000000000000000000000000000000000000000000000000000815260206004820152601460248201527f64732d6d6174682d6164642d6f766572666c6f77000000000000000000000000604482015290519081900360640190fd5b600080807fffffffffffffffffffffffffffffffffffffffffffffffffffffffffffffffff8486099050838502925082810391508281101561120f576001820391505b509250929050565b6000818103821680838161122757fe5b04925080858161123357fe5b04945080816000038161124257fe5b6002858103808702820302808702820302808702820302808702820302808702820302808702820302958602900390940293046001019390930293909301029291505056fe556e697377617056324172626974726167654c6962726172793a205a45524f5f504149525f5245534552564553556e697377617056324c6962726172793a204944454e544943414c5f414444524553534553556e697377617056324c6962726172793a20494e53554646494349454e545f4c4951554944495459436f6d707574654c697175696469747956616c75653a204c49515549444954595f414d4f554e54556e697377617056324c6962726172793a20494e53554646494349454e545f494e5055545f414d4f554e54a26469706673582212200c3af2cb2ff736d3892d34624832b99b276d5e945709de1a2db793273f79293064736f6c63430006060033",
  "immutableReferences": {
    "3686": [
      {
        "length": 32,
        "start": 506
      },
      {
        "length": 32,
        "start": 568
      },
      {
        "length": 32,
        "start": 635
      },
      {
        "length": 32,
        "start": 697
      },
      {
        "length": 32,
        "start": 739
      }
    ]
  },
  "source": "pragma solidity =0.6.6;\r\n\r\nimport '../libraries/UniswapV2LiquidityMathLibrary.sol';\r\n\r\ncontract ExampleComputeLiquidityValue {\r\n    using SafeMath for uint256;\r\n\r\n    address public immutable factory;\r\n\r\n    constructor(address factory_) public {\r\n        factory = factory_;\r\n    }\r\n\r\n    // see UniswapV2LiquidityMathLibrary#getReservesAfterArbitrage\r\n    function getReservesAfterArbitrage(\r\n        address tokenA,\r\n        address tokenB,\r\n        uint256 truePriceTokenA,\r\n        uint256 truePriceTokenB\r\n    ) external view returns (uint256 reserveA, uint256 reserveB) {\r\n        return UniswapV2LiquidityMathLibrary.getReservesAfterArbitrage(\r\n            factory,\r\n            tokenA,\r\n            tokenB,\r\n            truePriceTokenA,\r\n            truePriceTokenB\r\n        );\r\n    }\r\n\r\n    // see UniswapV2LiquidityMathLibrary#getLiquidityValue\r\n    function getLiquidityValue(\r\n        address tokenA,\r\n        address tokenB,\r\n        uint256 liquidityAmount\r\n    ) external view returns (\r\n        uint256 tokenAAmount,\r\n        uint256 tokenBAmount\r\n    ) {\r\n        return UniswapV2LiquidityMathLibrary.getLiquidityValue(\r\n            factory,\r\n            tokenA,\r\n            tokenB,\r\n            liquidityAmount\r\n        );\r\n    }\r\n\r\n    // see UniswapV2LiquidityMathLibrary#getLiquidityValueAfterArbitrageToPrice\r\n    function getLiquidityValueAfterArbitrageToPrice(\r\n        address tokenA,\r\n        address tokenB,\r\n        uint256 truePriceTokenA,\r\n        uint256 truePriceTokenB,\r\n        uint256 liquidityAmount\r\n    ) external view returns (\r\n        uint256 tokenAAmount,\r\n        uint256 tokenBAmount\r\n    ) {\r\n        return UniswapV2LiquidityMathLibrary.getLiquidityValueAfterArbitrageToPrice(\r\n            factory,\r\n            tokenA,\r\n            tokenB,\r\n            truePriceTokenA,\r\n            truePriceTokenB,\r\n            liquidityAmount\r\n        );\r\n    }\r\n\r\n    // test function to measure the gas cost of the above function\r\n    function getGasCostOfGetLiquidityValueAfterArbitrageToPrice(\r\n        address tokenA,\r\n        address tokenB,\r\n        uint256 truePriceTokenA,\r\n        uint256 truePriceTokenB,\r\n        uint256 liquidityAmount\r\n    ) external view returns (\r\n        uint256\r\n    ) {\r\n        uint gasBefore = gasleft();\r\n        UniswapV2LiquidityMathLibrary.getLiquidityValueAfterArbitrageToPrice(\r\n            factory,\r\n            tokenA,\r\n            tokenB,\r\n            truePriceTokenA,\r\n            truePriceTokenB,\r\n            liquidityAmount\r\n        );\r\n        uint gasAfter = gasleft();\r\n        return gasBefore - gasAfter;\r\n    }\r\n}\r\n",
  "sourcePath": "E:/sanya/Blockchain lab/DEX/enoch-dex-periphery/contracts/examples/ExampleComputeLiquidityValue.sol",
  "compiler": {
    "name": "solc",
    "version": "0.6.6+commit.6c089d02.Emscripten.clang"
  },
  "schemaVersion": "3.4.1",
  "updatedAt": "2021-07-21T09:50:26.314Z",
  "devdoc": {
    "methods": {}
  },
  "userdoc": {
    "methods": {}
  }
}